{
  "contractName": "DFPlayer",
  "abi": [
    {
      "inputs": [
        {
          "internalType": "address",
          "name": "_darkForest",
          "type": "address"
        }
      ],
      "stateMutability": "nonpayable",
      "type": "constructor"
    },
    {
      "inputs": [
        {
          "internalType": "uint256[2]",
          "name": "a",
          "type": "uint256[2]"
        },
        {
          "internalType": "uint256[2][2]",
          "name": "b",
          "type": "uint256[2][2]"
        },
        {
          "internalType": "uint256[2]",
          "name": "c",
          "type": "uint256[2]"
        },
        {
          "internalType": "uint256[1]",
          "name": "input",
          "type": "uint256[1]"
        }
      ],
      "name": "submitSpwnPosition",
      "outputs": [],
      "stateMutability": "nonpayable",
      "type": "function"
    },
    {
      "inputs": [
        {
          "internalType": "uint256[2]",
          "name": "a",
          "type": "uint256[2]"
        },
        {
          "internalType": "uint256[2][2]",
          "name": "b",
          "type": "uint256[2][2]"
        },
        {
          "internalType": "uint256[2]",
          "name": "c",
          "type": "uint256[2]"
        },
        {
          "internalType": "uint256[2]",
          "name": "input",
          "type": "uint256[2]"
        }
      ],
      "name": "moveToNewPosition",
      "outputs": [],
      "stateMutability": "nonpayable",
      "type": "function"
    }
  ],
  "bytecode": "0x608060405234801561001057600080fd5b506040516106a13803806106a18339818101604052602081101561003357600080fd5b8101908080519060200190929190505050806000806101000a81548173ffffffffffffffffffffffffffffffffffffffff021916908373ffffffffffffffffffffffffffffffffffffffff1602179055505061060d806100946000396000f3fe608060405234801561001057600080fd5b50600436106100365760003560e01c80632ecb7eeb1461003b578063ef4621dd1461019c575b600080fd5b61019a600480360361012081101561005257600080fd5b8101908080604001906002806020026040519081016040528092919082600260200280828437600081840152601f19601f82011690508083019250505050505091929192908060800190600280602002604051908101604052809291906000905b82821015610107578382604002016002806020026040519081016040528092919082600260200280828437600081840152601f19601f820116905080830192505050505050815260200190600101906100b3565b50505050919291929080604001906002806020026040519081016040528092919082600260200280828437600081840152601f19601f820116905080830192505050505050919291929080602001906001806020026040519081016040528092919082600160200280828437600081840152601f19601f82011690508083019250505050505091929192905050506102fd565b005b6102fb60048036036101408110156101b357600080fd5b8101908080604001906002806020026040519081016040528092919082600260200280828437600081840152601f19601f82011690508083019250505050505091929192908060800190600280602002604051908101604052809291906000905b82821015610268578382604002016002806020026040519081016040528092919082600260200280828437600081840152601f19601f82011690508083019250505050505081526020019060010190610214565b50505050919291929080604001906002806020026040519081016040528092919082600260200280828437600081840152601f19601f820116905080830192505050505050919291929080604001906002806020026040519081016040528092919082600260200280828437600081840152601f19601f820116905080830192505050505050919291929050505061046a565b005b6000809054906101000a900473ffffffffffffffffffffffffffffffffffffffff1673ffffffffffffffffffffffffffffffffffffffff1663d104e8fb858585856040518563ffffffff1660e01b81526004018085600260200280838360005b8381101561037857808201518184015260208101905061035d565b505050509050018460026000925b818410156103cc5782846020020151600260200280838360005b838110156103bb5780820151818401526020810190506103a0565b505050509050019260010192610386565b9250505083600260200280838360005b838110156103f75780820151818401526020810190506103dc565b5050505090500182600160200280838360005b8381101561042557808201518184015260208101905061040a565b50505050905001945050505050600060405180830381600087803b15801561044c57600080fd5b505af1158015610460573d6000803e3d6000fd5b5050505050505050565b6000809054906101000a900473ffffffffffffffffffffffffffffffffffffffff1673ffffffffffffffffffffffffffffffffffffffff16639148271a858585856040518563ffffffff1660e01b81526004018085600260200280838360005b838110156104e55780820151818401526020810190506104ca565b505050509050018460026000925b818410156105395782846020020151600260200280838360005b8381101561052857808201518184015260208101905061050d565b5050505090500192600101926104f3565b9250505083600260200280838360005b83811015610564578082015181840152602081019050610549565b5050505090500182600260200280838360005b83811015610592578082015181840152602081019050610577565b50505050905001945050505050600060405180830381600087803b1580156105b957600080fd5b505af11580156105cd573d6000803e3d6000fd5b505050505050505056fea264697066735822122050a4607468cae0ed8e1895d88999588c171ec17c82f000b3b21674a77de1683d64736f6c634300060b0033",
  "immutableReferences": {},
  "source": "// SPDX-License-Identifier: MIT\n\npragma solidity ^0.6.11;\nimport \"./Verifier.sol\";\n\ninterface IDarkForest {\n    function spwnPlayer(\n        uint[2] memory a,\n        uint[2][2] memory b,\n        uint[2] memory c,\n        uint[1] memory input) external;\n\n    function move(\n        uint[2] memory a,\n        uint[2][2] memory b,\n        uint[2] memory c,\n        uint[2] memory input\n    ) external;\n}\n\ncontract DarkForest {\n    struct TimestampData {\n        uint val;\n        bool isValue;\n    }\n\n    mapping(address => uint) public playerToLoc;\n    mapping(uint => TimestampData) public spwnLocToTimestamp;\n    mapping(uint => bool) public occupiedLoc;\n    mapping(uint => uint) public planetLocToResource;\n    mapping(address => uint) public playerToFinalResource;\n    mapping(address => uint) public playerToTempResource;\n    mapping(address => uint) public playerToLastMoveTimestamp;\n    // mapping to store the location to the last player that came to that location.\n    mapping(uint => address) public locToLastPlayer;\n\n    IVerifier verifier;\n\n    constructor (address _verifier) public {\n        verifier = IVerifier(_verifier);\n    }\n\n    function spwnPlayer(\n        uint[2] memory a,\n        uint[2][2] memory b,\n        uint[2] memory c,\n        uint[1] memory input) public returns (bool) {\n        uint spawnedLoc = input[0];\n        bool isValid = verifier.verifySpwnProof(a, b, c, input);\n        require (isValid, \"incorrect spwn location\");\n        bool isAtAnotherPlayerRecentSpwnLocation = spwnLocToTimestamp[spawnedLoc].isValue\n            && (spwnLocToTimestamp[spawnedLoc].val - block.timestamp) <= 5*60;\n        require (!isAtAnotherPlayerRecentSpwnLocation, \"can't spwn near another player's recent spwn location\");\n        bool isAtOccupiedLocation = occupiedLoc[spawnedLoc];\n        require (!isAtOccupiedLocation, \"can't spwn at occupied location\");\n\n        playerToLoc[msg.sender] = spawnedLoc;\n        locToLastPlayer[spawnedLoc] = msg.sender;\n\n        spwnLocToTimestamp[spawnedLoc] = TimestampData(block.timestamp, true);\n        occupiedLoc[spawnedLoc] = true;\n\n        return true;\n    }\n\n    function move(\n        uint[2] memory a,\n        uint[2][2] memory b,\n        uint[2] memory c,\n        uint[2] memory input\n    ) public returns (bool) {\n        bool isValid = verifier.verifyMoveProof(a, b, c, input);\n        require (isValid, \"incorrect target location\");\n        require (block.timestamp - playerToLastMoveTimestamp[msg.sender] > 30, \"cannot move before 30s has lapsed.\");\n        uint targetLoc = input[1];\n        uint oldLoc = playerToLoc[msg.sender];\n        // only generate resource the first time the planet is occupied\n        uint planetResource = 0;\n        if (planetLocToResource[targetLoc] == 0) {\n            planetResource = randomizeResourceAtLocation(targetLoc);\n        }\n        playerToLastMoveTimestamp[msg.sender] = block.timestamp;\n        // if player moves to a different location from the last location, \n        // we will commit the resource to the player.\n        if (targetLoc != oldLoc) {\n            commitResource();\n            playerToLoc[msg.sender] = targetLoc;\n            // if the player moving out of a location is also the last player\n            // coming to that location we remove the player from locationToLastPlayer\n            if (locToLastPlayer[oldLoc] == msg.sender) {\n                delete locToLastPlayer[oldLoc];\n            }\n        }\n        \n        // if no player is at the target loc, \n        // or if they want to move to the same location as the last move\n        // then temporarily gather the resource at this location.\n        if (locToLastPlayer[targetLoc] == address(0) || locToLastPlayer[targetLoc] == msg.sender) {\n            gatherResource(targetLoc);\n        } else {\n            stealResource(targetLoc);\n        }\n        locToLastPlayer[targetLoc] = msg.sender;\n    }\n\n    function randomizeResourceAtLocation(uint location) internal returns (uint) {\n        // check if the resource at a loc is zero. if it is, randomize a resource for that loc\n        if (planetLocToResource[location] == 0) {\n            \n            // since 0 is the default value, we use that to mark that the resources\n            // have not been initialized.\n            // resources will be gathered as following\n            // #1 = 0 unit of resource\n            // #2 = 1 units of resource\n            // #3 = 2 units of resource\n            // #4 = 3 units of resource\n            uint resource = block.timestamp % 3 + 1;\n            planetLocToResource[location] = resource;\n            return resource;\n        }\n        return 0;\n    }\n\n    function gatherResource(uint location) internal {\n        playerToTempResource[msg.sender] += planetLocToResource[location] - 1;\n    }\n\n    function commitResource() internal {\n        playerToFinalResource[msg.sender] += playerToTempResource[msg.sender];\n        delete playerToTempResource[msg.sender];\n    }\n\n    function stealResource(uint location) internal {\n        address lastPlayer = locToLastPlayer[location];\n        playerToTempResource[msg.sender] = playerToTempResource[lastPlayer];\n        playerToTempResource[lastPlayer] = 0;\n    }\n}\n\ncontract DFPlayer {\n    IDarkForest darkForest;\n\n    constructor (address _darkForest) public {\n        darkForest = IDarkForest(_darkForest);\n    }\n\n    function submitSpwnPosition (\n        uint[2] memory a,\n        uint[2][2] memory b,\n        uint[2] memory c,\n        uint[1] memory input) public {\n        darkForest.spwnPlayer(a, b, c, input);\n    }\n\n    function moveToNewPosition (\n        uint[2] memory a,\n        uint[2][2] memory b,\n        uint[2] memory c,\n        uint[2] memory input) public {\n        darkForest.move(a, b, c, input);\n    }\n}",
  "sourcePath": "/Users/elise.pham/zku/dark_forest/contracts/DarkForest.sol",
  "compiler": {
    "name": "solc",
    "version": "0.6.11+commit.5ef660b1.Emscripten.clang"
  },
  "schemaVersion": "3.4.4",
  "updatedAt": "2022-01-13T08:07:58.053Z",
  "networkType": "ethereum",
  "devdoc": {
    "kind": "dev",
    "methods": {},
    "version": 1
  },
  "userdoc": {
    "kind": "user",
    "methods": {},
    "version": 1
  }
}